:020000040800F2
:1000000038070020550200083D040008D503000809
:1000100039040008F90200088D08000800000000FB
:100020000000000000000000000000009D0100082A
:10003000FD02000800000000F10100086906000848
:100040006F0200086F0200086F0200086F020008CC
:100050006F0200086F0200086F0200086F020008BC
:100060006F0200086F0200086F0200086F020008AC
:100070006F0200086F0200086F0200086F0200089C
:100080006F0200086F0200086F0200086F0200088C
:100090006F0200086F0200086F0200086F0200087C
:1000A0006F0200086F0200086F0200086F0200086C
:1000B0006F0200086F0200086F0200086F0200085C
:1000C0006F0200086F0200086F0200086F0200084C
:1000D0006F0200086F0200086F0200086F0200083C
:1000E0006F0200086F0200086F0200086F0200082C
:1000F0006F0200086F0200086F0200086F0200081C
:100100006F0200086F0200086F0200086F0200080B
:100110006F0200086F0200086F0200086F020008FB
:100120006F0200086F0200086F0200086F020008EB
:100130006F0200086F0200086F0200086F020008DB
:100140006F0200086F0200086F0200086F020008CB
:100150006F0200086F0200086F0200086F020008BB
:100160006F0200086F0200086F0200086F020008AB
:100170006F0200086F0200086F0200086F0200089B
:100180006F0200086F020008DFF80CD000F08AF858
:1001900000480047AD0A0008380700202A4B1968BC
:1001A0000868B0E8F04F80F30988BFF36F8F4FF015
:1001B000000080F3118870470000000006480068C6
:1001C000006880F3088862B661B6BFF34F8FBFF353
:1001D0006F8F00DF00BF00BF08ED00E0DFF80C000C
:1001E000016841F470010160704700BF88ED00E0D4
:1001F000EFF30980BFF36F8F134B1A681EF0100FD7
:1002000008BF20ED108A20E9F04F106008B44FF0CD
:10021000500080F31188BFF34F8FBFF36F8F00F052
:1002200081FC4FF0000080F3118808BC1968086851
:10023000B0E8F04F1EF0100F08BFB0EC108A80F34A
:100240000988BFF36F8F704710000020EFF305801F
:10025000704700000648804706480047FEE7FEE773
:10026000FEE7FEE7FEE7FEE7FEE7FEE7FEE7FEE766
:10027000790600088901000830B50B4601460020C8
:100280002022012409E021FA02F59D4205D303FA58
:1002900002F5491B04FA02F52844151EA2F10102D9
:1002A000F1DC30BD064C074D06E0E06840F001038C
:1002B00094E8070098471034AC42F6D3FFF768FF84
:1002C000900D0008B00D00084FF4407000F0B8F831
:1002D00000F082F800F004FA40200349088003A0EF
:1002E00000F0D6FA00BFFEE71A140240757361727F
:1002F0007431206F6B0A000000BFFEE77047F0B555
:100300000A4600210023002400BF3DE0012505FA34
:1003100001F3156805EA03049C4234D105684F00D7
:100320000326BE40B543056015794E00B54006680A
:10033000354305601579012D02D01579022D16D1AE
:1003400085684F000326BE40B543856055794E0051
:10035000B540866835438560456801268E40B543C3
:100360004560456896798E40B6B235434560C568AC
:100370004F000326BE40B543C560D5794E00B54059
:10038000C6683543C560491C1029BFD3F0BDF0B520
:10039000002300244D07ED0E02FA05F3CE1000F104
:1003A000200555F826504E07F70E0F26BE40B543E0
:1003B000CF1000F1200646F82750CE1000F120059E
:1003C00055F8265045EA0304CE1000F1200545F803
:1003D0002640F0BD00BFFEE71CB50121202000F043
:1003E00039F84020009001208DF8040000208DF89D
:1003F000060001208DF8070000208DF805006946F1
:100400000C48FFF77CFF8020009069460948FFF701
:1004100076FF4FF48070009069460648FFF76FFF43
:10042000402004491831088080200880400008805E
:100430001CBD00000014024000BFFEE77047000032
:1004400002490143024A1160704700000000FA05AA
:100450000CED00E029B1064A12680243044B1A6011
:1004600004E0034A12688243014B1A60704700009F
:100470003038024029B1064A12680243044B1A6020
:1004800004E0034A12688243014B1A60704700007F
:1004900044380240F0B50021002200240225002645
:1004A0000223324F3F6807F00C0121B1042905D027
:1004B000082937D105E02E4F076036E02D4F076041
:1004C00033E02A4F3F1F3F68C7F38056274F3F1F37
:1004D0003F6807F03F036EB1264FB7FBF3F7DFF835
:1004E0008CC0ACF1040CDCF800C0CCF3881C07FB1A
:1004F0000CF40CE01E4FB7FBF3F7DFF870C0ACF163
:10050000040CDCF800C0CCF3881C07FB0CF4174F7C
:100510003F1F3F68C7F301477F1C7D00B4FBF5F721
:10052000076002E0124F076000BF00BF0F4F3F6837
:1005300007F0F0010909104F7A5C0768D74047605F
:100540000A4F3F6807F4E051890A0B4F7A5C47680D
:10055000D7408760054F3F6807F46041490B064F5D
:100560007A5C4768D740C760F0BD00000838024099
:100570000024F40040787D01000000200CB500202C
:10058000019000903448006840F48030324908609F
:1005900000BF3148006800F4003000900198401C12
:1005A0000190009818B90198B0F5A04FF1D12A48F0
:1005B000006800F4003010B10120009001E000203C
:1005C00000900098012846D123484030006840F050
:1005D00080502149403108602048006840F4404084
:1005E0001E4908601C48083000681B490831086033
:1005F0000846006840F4004008600846006840F47F
:10060000A05008601648091F0860081F006840F0E5
:100610008070091F086000BF0F48006800F000707C
:100620000028F9D040F205700E4908600A480830E9
:10063000006820F003000849083108600846006897
:1006400040F00200086000BF03480830006800F076
:100650000C000828F8D10CBD0038024000700040A2
:1006600019544007003C024010B500F0CDFA0128B3
:1006700001D000F0AFFA10BD10B51548006840F485
:100680007000134908601348006840F001001149E8
:10069000086000200F49083108600E4800680E49C4
:1006A00008400C4908600D48091D0860081F0068D3
:1006B00020F48020091F0860002006490C310860E2
:1006C000FFF75CFF4FF0006001498039086010BD02
:1006D00088ED00E000380240FFFFF6FE10300024F5
:1006E00000B587B001211020FFF7C4FE01210846A4
:1006F000FFF7B0FE02208DF8190000208DF81A00D7
:1007000001208DF81B0002208DF8180000020590D2
:1007100005A91848FFF7F3FD02208DF818004002E4
:10072000059005A91348FFF7EAFD072209211148A2
:10073000FFF72DFE07220A210E48FFF728FE4FF48F
:10074000E13001900020ADF80800ADF80A00ADF8E6
:100750000C000C20ADF80E000020ADF8100001A92F
:10076000054800F025F80121034800F007F807B01C
:1007700000BD0000000002400010014021B182894C
:1007800042F40052828104E082894DF6FF731A40E0
:100790008281704702460020B1F5007F00D100BF82
:1007A00013880B400BB1012000E0002070470000CF
:1007B0002DE9FF4705460E460024A14600BFA0468E
:1007C000B08900B100BF2C8A24F44054F08804435F
:1007D0002C82AC8941F20C608443B0883189084393
:1007E000718908430443AC81AC8A24F44074B08915
:1007F0000443AC826846FFF74DFE2048854202D094
:100800001F48854202D1DDF80C9001E0DDF8089028
:10081000A88900F4004040B109EBC90000EB0910C1
:1008200031684900B0FBF1F707E009EBC90000EBC4
:10083000091031688900B0FBF1F76420B7FBF0F0D4
:1008400004012009642101FB1078A88900F400400C
:1008500040B1322000EBC800B0FBF1F000F007001F
:10086000044308E0322000EB08106421B0FBF1F0F3
:1008700000F00F0004432C81BDE8FF870010014009
:1008800000140140C1F308028280704700BFFEE7F8
:100890000FB4054B10B503A9044A029800F018F8EC
:1008A00010BC5DF814FB0000890A00084C00002011
:1008B00002E008C8121F08C1002AFAD17047704729
:1008C000002001E001C1121F002AFBD17047000087
:1008D0002DE9FF4F8BB09A460F460546002606E0ED
:1008E00025280BD052460D9990476D1C761C287810
:1008F0000028F5D10FB03046BDE8F08F0024A046A7
:100900000122604900E0044315F8013F203B02FA50
:1009100003F00842F7D128782E2817D115F8010FD7
:1009200044F004042A280ED06FF02F022878A0F19A
:10093000300109290AD808EB880102EB410100EBDC
:1009400001086D1CF2E757F8048B6D1C28786928A4
:100950003ED006DC0028CDD063280BD0642804D11B
:1009600036E0732810D075284BD052460D99904729
:10097000761C85E017F8040B8DF8000000208DF838
:100980000100E946012003E057F8049B4FF0FF30D7
:1009900061074FF0000401D40AE0641C44450DDAFD
:1009A0008442FADB19F804100029F6D106E0641C31
:1009B0008442FCDB19F804100029F8D1264404E035
:1009C00019F8010B52460D999047641EF8D257E072
:1009D00001CF4FF00A0B002802DA40422D2102E03D
:1009E000210504D52B218DF82410012103E0E10716
:1009F00005D02021F7E70DF1200908910CE0002136
:100A0000F9E701CF4FF00A0BF9E75946FFF734FC3D
:100A100001F1300209F8012D0028F6D1ADEB0900F3
:100A200000F1200B600701D44FF00108D84502DD2A
:100A3000A8EB0B0000E000208046002406E009A897
:100A40005246005D0D999047641C761C08988442BC
:100A5000F5DB04E0302052460D999047761CB8F142
:100A60000001A8F10108F5DC05E019F8010B524678
:100A70000D999047761CBBF10001ABF1010BF4DC42
:100A80006D1C34E70928010070B504460D46A1B27B
:100A90000548FFF7F7FE00BF80210348FFF77AFE05
:100AA0000028F9D0204670BD00100140FFF70CFC73
:100AB0000A490968096809B9012100E0002121B14A
:100AC0004FF0FF31064A116006E004490968C96821
:100AD000C868034A41681160704700001400002094
:100AE0004000002001460A69D1E901309860D1E94F
:100AF000010358605068884201D188685060002026
:100B000008611068401E10601068704742684A60B3
:100B100093688B60936859609160086103685B1CFF
:100B20000360704710B51B48006818B101201A49CE
:100B300008602DE000201849086018480068B0FAE5
:100B400080F0C0F11F0404EB8400154951F8200027
:100B500008B1012000E0002028B940F6F62211A1DA
:100B600017A0FFF795FE04EB84010D4A02EB81000C
:100B700041684968416000F1080142688A4202D137
:100B80004168496841604168C968114A116000BF05
:100B900010BD000048000020340000202800002084
:100BA000500000202E2E5C2E2E5C4672656552543D
:100BB0004F535C7372635C7461736B732E630000DC
:100BC0004572726F723A25732C25640D0A0000007D
:100BD0001000002010B500BF502080F31188BFF333
:100BE0004F8FBFF36F8F00BF00F01EF818B14FF0AA
:100BF00080500449086000BF002080F3118800BFC6
:100C000010BD000004ED00E00549096809B90120A4
:100C100005E00449096809B9022000E00020704796
:100C20002C000020480000202DE9F0414FF0000882
:100C300041480068002872D140480068451C3F4880
:100C40000560EDB93E480068006808B9012000E081
:100C5000002028B940F6D9123AA141A0FFF718FEAA
:100C600037480768424800683549086040480760CF
:100C700040480068401C3F490860FFF719FF00BF6B
:100C80003D48006885423CD300BF2D48006800689D
:100C900008B9012000E0002020B14FF0FF303649B4
:100CA00008602DE026480068C068C4686668B542E0
:100CB00002D23148066023E0201DFFF713FFA06A2F
:100CC00018B104F11800FFF70DFF94F82C10012063
:100CD00088402A490968084328490860E16A01EB0D
:100CE0008101274A02EB8100211DFFF70FFF2549F3
:100CF000E06A0968C96A8842C7D34FF00108C4E7AF
:100D000000BF20480068C06A00EB80001C4951F811
:100D10002000012801D94FF0010805E0FFE71A483B
:100D20000068401C184908601848006808B14FF076
:100D300001084046BDE8F081480000202400002062
:100D4000140000202E2E5C2E2E5C467265655254D7
:100D50004F535C7372635C7461736B732E6300003A
:100D60004572726F723A25732C25640D0A000000DB
:100D7000180000203800002040000020280000203B
:100D8000500000201000002030000020340000201F
:100D9000B00D00080000002050000000B00800085E
:100DA000000E000850000020E8060000C0080008FF
:100DB0000000000001020304010203040607080901
:100DC0000000000000000000000000000000000023
:100DD0000000000000000000000000000000000013
:100DE0000000000000000000000000000000000003
:100DF00000000000000000000000000000000000F3
:040000050800018965
:00000001FF
