:020000040800F2
:100000000098002055020008D504000845040008A7
:10001000D104000869030008250900080000000059
:100020000000000000000000000000009D0100082A
:100030006D03000800000000F1010008010700083E
:100040006F0200086F0200086F0200086F020008CC
:100050006F0200086F0200086F0200086F020008BC
:100060006F0200086F0200086F0200086F020008AC
:100070006F0200086F0200086F0200086F0200089C
:100080006F0200086F0200086F0200086F0200088C
:100090006F0200086F0200086F0200086F0200087C
:1000A0006F0200086F0200086F0200086F0200086C
:1000B0006F0200086F0200086F0200086F0200085C
:1000C0006F0200086F0200086F0200086F0200084C
:1000D0006F0200086F0200086F0200086F0200083C
:1000E0006F0200086F0200086F0200086F0200082C
:1000F0006F0200086F0200086F0200086F0200081C
:100100006F0200086F0200086F0200086F0200080B
:100110006F0200086F0200086F0200086F020008FB
:100120006F0200086F0200086F0200086F020008EB
:100130006F0200086F0200086F0200086F020008DB
:100140006F0200086F0200086F0200086F020008CB
:100150006F0200086F0200086F0200086F020008BB
:100160006F0200086F0200086F0200086F020008AB
:100170006F0200086F0200086F0200086F0200089B
:100180006F0200086F020008DFF80CD000F09CF846
:1001900000480047450B0008009800202A4B1968CA
:1001A0000868B0E8F04F80F30988BFF36F8F4FF015
:1001B000000080F3118870470000000006480068C6
:1001C000006880F3088862B661B6BFF34F8FBFF353
:1001D0006F8F00DF00BF00BF08ED00E0DFF80C000C
:1001E000016841F470010160704700BF88ED00E0D4
:1001F000EFF30980BFF36F8F134B1A681EF0100FD7
:1002000008BF20ED108A20E9F04F106008B44FF0CD
:10021000500080F31188BFF34F8FBFF36F8F01F051
:10022000E7FE4FF0000080F3118808BC19680868E9
:10023000B0E8F04F1EF0100F08BFB0EC108A80F34A
:100240000988BFF36F8F704724000020EFF305800B
:10025000704700000648804706480047FEE7FEE773
:10026000FEE7FEE7FEE7FEE7FEE7FEE7FEE7FEE766
:10027000110700088901000840EA01039B0703D029
:1002800009E008C9121F08C0042AFAD203E011F8D5
:10029000013B00F8013B521EF9D2704730B50B46C6
:1002A000014600202022012409E021FA02F59D42A6
:1002B00005D303FA02F5491B04FA02F52844151E7A
:1002C000A2F10102F1DC30BD064C074D06E0E0680A
:1002D00040F0010394E8070098471034AC42F6D38D
:1002E000FFF756FF982E0008B82E00081CB5012411
:1002F00001F0F8FA0B48022100230A02CDE90010B0
:1003000009A10C4802F0DCFA0446012C02D10AA033
:1003100000F00AFB0E48006801F096FC01F026FB95
:100320001CBD00009C0000204C45445F5461736B71
:1003300000000000A9040008B4B4BDA84C45445F07
:100340005461736BC8CECEF1B3C9B9A600000000EA
:100350009800002010B54FF4407000F0BDF800F098
:1003600073F800F009FA10BD00BFFEE77047F0B562
:100370000A4600210023002400BF3DE0012505FAC4
:1003800001F3156805EA03049C4234D105684F0067
:100390000326BE40B543056015794E00B54006689A
:1003A000354305601579012D02D01579022D16D13E
:1003B00085684F000326BE40B543856055794E00E1
:1003C000B540866835438560456801268E40B54353
:1003D0004560456896798E40B6B235434560C5683C
:1003E0004F000326BE40B543C560D5794E00B540E9
:1003F000C6683543C560491C1029BFD3F0BDF0B5B0
:10040000002300244D07ED0E02FA05F3CE1000F193
:10041000200555F826504E07F70E0F26BE40B5436F
:10042000CF1000F1200646F82750CE1000F120052D
:1004300055F8265045EA0304CE1000F1200545F892
:100440002640F0BD00BFFEE71CB50121202000F0D2
:100450004DF84020009001208DF8040000208DF818
:10046000060001208DF8070000208DF80500694680
:100470000C48FFF77CFF8020009069460948FFF791
:1004800076FF4FF48070009069460648FFF76FFFD3
:1004900040200449183108808020088040000880EE
:1004A0001CBD0000001402400EE0402007490880F7
:1004B0004FF4FA7001F08AFB40200449891E08803D
:1004C0004FF4FA7001F082FBEFE700001A140240CB
:1004D00000BFFEE77047000002490143024A116075
:1004E000704700000000FA050CED00E029B1064A53
:1004F00012680243044B1A6004E0034A1268824304
:10050000014B1A60704700003038024029B1064A9A
:1005100012680243044B1A6004E0034A12688243E3
:10052000014B1A607047000044380240F0B50021CA
:1005300000220024022500260223324F3F6807F0E4
:100540000C0121B1042905D0082937D105E02E4F2F
:10055000076036E02D4F076033E02A4F3F1F3F68AA
:10056000C7F38056274F3F1F3F6807F03F036EB128
:10057000264FB7FBF3F7DFF88CC0ACF1040CDCF8C6
:1005800000C0CCF3881C07FB0CF40CE01E4FB7FB3B
:10059000F3F7DFF870C0ACF1040CDCF800C0CCF36A
:1005A000881C07FB0CF4174F3F1F3F68C7F3014738
:1005B0007F1C7D00B4FBF5F7076002E0124F076077
:1005C00000BF00BF0F4F3F6807F0F0010909104F4F
:1005D0007A5C0768D74047600A4F3F6807F4E051EC
:1005E000890A0B4F7A5C4768D7408760054F3F68A0
:1005F00007F46041490B064F7A5C4768D740C760F3
:10060000F0BD0000083802400024F40040787D016D
:10061000140000200CB500200190009034480068C0
:1006200040F480303249086000BF3148006800F46F
:10063000003000900198401C0190009818B9019872
:10064000B0F5A04FF1D12A48006800F4003010B195
:100650000120009001E0002000900098012846D180
:1006600023484030006840F0805021494031086004
:100670002048006840F440401E4908601C4808308B
:1006800000681B49083108600846006840F40040D3
:1006900008600846006840F4A05008601648091F2A
:1006A0000860081F006840F08070091F086000BFE4
:1006B0000F48006800F000700028F9D040F2057083
:1006C0000E4908600A480830006820F00300084915
:1006D000083108600846006840F00200086000BF6A
:1006E00003480830006800F00C000828F8D10CBD61
:1006F000003802400070004019544007003C02409E
:1007000010B502F00DF9012801D001F077FD10BD00
:1007100010B51548006840F470001349086013488C
:10072000006840F001001149086000200F490831BD
:1007300008600E4800680E4908400C4908600D48E2
:10074000091D0860081F006820F48020091F086048
:10075000002006490C310860FFF75CFF4FF0006095
:1007600001498039086010BD88ED00E00038024082
:10077000FFFFF6FE1030002400B587B001211020E5
:10078000FFF7C4FE01210846FFF7B0FE02208DF8F6
:10079000190000208DF81A0001208DF81B0002209E
:1007A0008DF818000002059005A91848FFF7DFFD35
:1007B00002208DF818004002059005A91348FFF7A4
:1007C000D6FD072209211148FFF719FE07220A2149
:1007D0000E48FFF714FE4FF4E13001900020ADF811
:1007E0000800ADF80A00ADF80C000C20ADF80E00C2
:1007F0000020ADF8100001A9054800F025F80121FE
:10080000034800F007F807B000BD000000000240F8
:100810000010014021B1828942F40052828104E03B
:1008200082894DF6FF731A4082817047024600208C
:10083000B1F5007F00D100BF13880B400BB1012040
:1008400000E00020704700002DE9FF4705460E46F6
:100850000024A14600BFA046B08900B100BF2C8A89
:1008600024F44054F08804432C82AC8941F20C609B
:100870008443B08831890843718908430443AC81BB
:10088000AC8A24F44074B0890443AC826846FFF714
:100890004DFE2048854202D01F48854202D1DDF836
:1008A0000C9001E0DDF80890A88900F4004040B108
:1008B00009EBC90000EB091031684900B0FBF1F702
:1008C00007E009EBC90000EB091031688900B0FBB3
:1008D000F1F76420B7FBF0F004012009642101FB6B
:1008E0001078A88900F4004040B1322000EBC80025
:1008F000B0FBF1F000F00700044308E0322000EB09
:1009000008106421B0FBF1F000F00F0004432C81CB
:10091000BDE8FF870010014000140140C1F3080248
:100920008280704700BFFEE70FB4054B10B503A9E6
:10093000044A029800F018F810BC5DF814FB00009F
:10094000210B0008A000002002E008C8121F08C107
:10095000002AFAD170477047002001E001C1121F40
:10096000002AFBD1704700002DE9FF4F8BB09A465B
:100970000F460546002606E025280BD052460D9965
:1009800090476D1C761C28780028F5D10FB03046B2
:10099000BDE8F08F0024A0460122604900E0044336
:1009A00015F8013F203B02FA03F00842F7D12878FE
:1009B0002E2817D115F8010F44F004042A280ED070
:1009C0006FF02F022878A0F1300109290AD808EB2E
:1009D000880102EB410100EB01086D1CF2E757F8BA
:1009E000048B6D1C287869283ED006DC0028CDD009
:1009F00063280BD0642804D136E0732810D0752802
:100A00004BD052460D999047761C85E017F8040BA1
:100A10008DF8000000208DF80100E946012003E078
:100A200057F8049B4FF0FF3061074FF0000401D4EA
:100A30000AE0641C44450DDA8442FADB19F804101C
:100A40000029F6D106E0641C8442FCDB19F804108E
:100A50000029F8D1264404E019F8010B52460D99FB
:100A60009047641EF8D257E001CF4FF00A0B0028E0
:100A700002DA40422D2102E0210504D52B218DF818
:100A80002410012103E0E10705D02021F7E70DF153
:100A9000200908910CE00021F9E701CF4FF00A0B83
:100AA000F9E75946FFF7FAFB01F1300209F8012D89
:100AB0000028F6D1ADEB090000F1200B600701D44E
:100AC0004FF00108D84502DDA8EB0B0000E0002044
:100AD0008046002406E009A85246005D0D99904723
:100AE000641C761C08988442F5DB04E030205246F2
:100AF0000D999047761CB8F10001A8F10108F5DCCA
:100B000005E019F8010B52460D999047761CBBF190
:100B10000001ABF1010BF4DC6D1C34E70928010086
:100B200070B504460D46A1B20548FFF7F7FE00BFB9
:100B300080210348FFF77AFE0028F9D0204670BDD7
:100B4000001001401CB50124FFF704FC0BA0FFF7C7
:100B5000EBFE1148012100234A02CDE900100FA14C
:100B6000124801F0ADFE0446012C02D101F0DEF97D
:100B700002E04FF0FF301CBD00BFFEE7D5E2CAC760
:100B8000D2BBB8F6B6AFCCACC8CECEF1B4B4BDA82B
:100B9000CAB5D1E90D0A00009800002041707043E9
:100BA00072656174655461736B000000ED020008AA
:100BB0002DE9F04105460E461C4807681C480068B0
:100BC000001D00F045FE50B91948006890F82C103F
:100BD0000120884017490968814316480160681C54
:100BE00038B936B112480168091D134800F06EFE8D
:100BF0001AE07C190E4800684460BC4207D20C48D9
:100C00000168091D0D48006800F046FE0CE0084828
:100C10000168091D0A48006800F03EFE09480068A6
:100C2000844201D207480460BDE8F081380000200A
:100C3000240000203C000020C40300202C000020E1
:100C4000280000205400002010B5044600F04AFEA1
:100C500023480068401C224908602248006840B9C7
:100C6000204804600846006801280DD100F0E8F92A
:100C70000AE01D48006838B91A480068C06AE16A8D
:100C8000884201D81748046018480068401C17497A
:100C9000086094F82C100120884015490968084321
:100CA00013490860E16A01EB8101124A02EB8100FD
:100CB000211D00F00BFE00F059FE0B48006868B1E2
:100CC00008480068C06AE16A884207D24FF0805045
:100CD00009490860BFF34F8FBFF36F8F10BD00004D
:100CE000340000202400002040000020500000209C
:100CF0003C000020F400002004ED00E010B500F0FE
:100D0000F1FD10480068D0B90F4800F0B5FD0F485C
:100D100000F0B2FD0C480E4908600C480D4908600F
:100D2000002210210A2001F083FA064908600846D3
:100D3000006820B108A10348006800F00BFF00F034
:100D400015FE10BD68000020D8030020EC03002031
:100D50006000002064000020546D7251000000000B
:100D600070B523E001F03CF91348006808B9012090
:100D700000E00020054601F06BFFBDB900F0B2FDB8
:100D80000D48C068C468201D00F062FD0B48006873
:100D9000401E0A4908600A480068401E0849086069
:100DA00000F0E4FD204600F060F800BF0448006851
:100DB0000028D7D170BD0000B0030020340000200F
:100DC0003000002070B504460D46206C70B1216CD7
:100DD000E0680844E0606168E068884201D3206808
:100DE000E0602846226CE168FFF746FA70BD2DE905
:100DF000F04104460F4615464FF00008A66B206CE4
:100E000040B9206860BB606801F054FE8046002055
:100E1000606025E07DB93946226CA068FFF72CFAA6
:100E2000216CA0680844A060D4E90110884217D35F
:100E30002068A06014E03946226CE068FFF71CFAD5
:100E4000216CE068401AE0602168E068884203D2C3
:100E5000216C6068401AE060022D01D106B1761E57
:100E6000701CA0634046BDE8F08110B50446206BBD
:100E700000F0B4FD204600F0B1FD10BD0146084A67
:100E8000126812680AB9012200E000220A600A68AA
:100E900022B9034A1268D268106800E00020704747
:100EA0006000002030B54FF41043174800F00704ED
:100EB0002CB1C01D20F00700134C041B1B1B024665
:100EC000124C22600024114D6C60D018083820F0BC
:100ED00007000F4C206000240D4D2D686C600C4DF8
:100EE0002D682C601146441A4C60094C24680C6033
:100EF000084D4C682C60084D4C682C604FF0004445
:100F0000064D2C6030BD000000040020740000205D
:100F10007C00002084000020800000208800002049
:100F200000BFFFF71DFF064800680128F9D94FF000
:100F3000805004490860BFF34F8FBFF36F8FF0E715
:100F4000F400002004ED00E02DE9F04106460D46D6
:100F500017469846069C0DB9246000E02760E663BA
:100F600025640121204601F089FA0020A064BDE833
:100F7000F08100002DE9FF5F81460F469246DDE9D2
:100F80000E6B109CAAF10100216B01EB800828F088
:100F9000070808F0070008B9012000E0002028B980
:100FA00040F22B321BA122A0FFF7BEFC002507E078
:100FB000795D04F134004155785D00B902E06D1CA3
:100FC000102DF5D300BF002143200155202E00D362
:100FD0001F26E66266640020A064201D00F059FC14
:100FE00004F1180000F055FC2461C6F12000A06156
:100FF00064620020E06484F8500049464046039A49
:1010000000F010FC2060BBF1000F01D0CBF80040D5
:10101000BDE8FF9F2E2E5C2E2E5C467265655254F5
:101020004F535C7372635C7461736B732E63000067
:101030004572726F723A25732C25640D0A00000008
:1010400010B5002407E004EB84010F4A02EB810095
:1010500000F012FC641C202CF5D30C4800F00CFCB2
:101060000B4800F009FC0B4800F006FC0A4800F0B1
:1010700003FC0A4800F000FC0448094908600448E1
:101080000849086010BD0000F4000020740300202F
:10109000880300209C030020B0030020C40300202C
:1010A000280000202C00002010B50146164800E062
:1010B000006803688B42FBD30246436813448B42AB
:1010C00004D143684C682344436001460A464B6898
:1010D00013440468A34211D10C4C03682468A34252
:1010E00008D04B680468646823444B6003681B683D
:1010F0000B6005E0054B1B680B6001E003680B60AB
:10110000884200D0016010BD740000207C000020E7
:101110002DE9F04104460D4616461F464FF00008E3
:1011200065602461B5420CD8F01BA169884202D3E6
:101130004FF0010811E0211D0948006800F0ACFBE8
:101140000BE0BE4204D2BD4202D34FF0010804E0DE
:10115000211D0448006800F09FFB4046BDE8F08177
:10116000640000206000002070B5054600F0BAFB66
:10117000A86B08B9012400E0002400F0F7FB20462A
:1011800070BD70B5054600F0ADFBA86BE96B8842F9
:1011900001D1012400E0002400F0E8FB204670BDEE
:1011A0002DE9F3410D460098846C00272CB940F6D8
:1011B000CE121AA120A0FFF7B7FBA06BE16B88420B
:1011C00001D2012000E0002028B940F6CF1213A17F
:1011D00019A0FFF7A9FBA06BE16B88421BD294F921
:1011E00045602A4669462046FFF701FE0746701C07
:1011F00060B9606A08B9012000E0002050B904F12C
:10120000240001F0C7FC28B1012703E0701C40B2A4
:1012100084F8450000BF3846BDE8FC812E2E5C2EC8
:101220002E5C4672656552544F535C7372635C71F9
:10123000756575652E6300004572726F723A25738D
:101240002C25640D0A000000F8B505460F4613482A
:101250000068C068C468201D00F0FAFAE06901283F
:1012600018D1A06941192B463A462046FFF750FF96
:1012700080B1002003462A4601460090204601F036
:10128000B7FD06462EB94FF4027205A10BA0FFF779
:101290004BFB00BF2046616A8847F8BD6000002014
:1012A0002E2E5C2E2E5C4672656552544F535C7335
:1012B00072635C74696D6572732E63004572726F40
:1012C000723A25732C25640D0A000000F0B587B032
:1012D00070E0039800280CDA04AE2EB940F2E72241
:1012E0003AA141A0FFF720FBD6E90020B168904762
:1012F00000BF039800285DDB059C606908B90120E8
:1013000000E0002010B9201D00F0A2FA02A800F0B1
:10131000C9F8054603980A284AD2DFE800F0090513
:10132000072C2E4506082D2F00BF00BF00BF00BFB1
:101330000498A269811803462A462046FFF7E8FE72
:10134000C0B12046616A8847E069012812D10020B7
:1013500000900498A169421800231946204601F024
:1013600047FD07462FB940F2213218A11EA0FFF712
:10137000DBFA00BF1DE000BF1BE000BF0498A061C6
:10138000A06908B1012000E0002028B94FF44E7296
:101390000EA115A0FFF7C8FAA06941192B462A46ED
:1013A0002046FFF7B5FE04E0204600F017FB00E002
:1013B00000BF00BF00231A4603A90F48006800F0D1
:1013C00075FF002885D107B0F0BD00002E2E5C2EE1
:1013D0002E5C4672656552544F535C7372635C7445
:1013E000696D6572732E63004572726F723A257370
:1013F0002C25640D0A00000068000020F8B50546A1
:101400000C4600F0EDFD684600F04CF806460098EA
:1014100020BB44B9B54206D801F01AFC3146284633
:10142000FFF712FF1CE03CB10E480068006808B9E5
:10143000012000E000200446A91B22460A4800685B
:1014400000F09EFB01F004FC50B94FF080500749BA
:101450000860BFF34F8FBFF36F8F01E001F0F8FB1F
:10146000F8BD0000640000206800002004ED00E0EA
:101470000A490968096809B9012100E0002121B180
:101480004FF0FF31064A116006E004490968C96857
:10149000C868034A416811607047000028000020B6
:1014A0005400002070B5044601F04AFA054607488A
:1014B0000068854204D200F00BF80120206001E0B2
:1014C0000020206001480560284670BD70000020A3
:1014D0002DE9F8432DE021480068C06805681F48E1
:1014E0000068C068C468201D00F0B2F92046616A37
:1014F0008847E06901281CD1A0694619AE4207D986
:1015000066602461211D1548006800F0C5F910E0EF
:10151000002003462A4601460090204601F068FC60
:1015200007462FB940F292320DA114A0FFF7FCF943
:1015300000BF0A480068006808B9012000E00020E8
:101540000028C8D00548D0F800801048006803493A
:1015500008600E48C0F80080BDE8F88360000020F5
:101560002E2E5C2E2E5C4672656552544F535C7372
:1015700072635C74696D6572732E63004572726F7D
:10158000723A25732C25640D0A00000064000020C7
:101590000C480068401C08B9012000E0002028B970
:1015A00040F20F1208A113A0FFF7BEF900BF5020B0
:1015B00080F31188BFF34F8FBFF36F8F00BF00BF61
:1015C000FEE700008C0000202E2E5C2E2E5C467262
:1015D000656552544F535C706F72745C525644533D
:1015E0005C41524D5F434D34465C706F72742E63A4
:1015F000000000004572726F723A25732C25640D4D
:101600000A00000008B500BF6846FFF737FC044633
:1016100020460099FFF7F2FEFFF758FEF4E770B599
:10162000044600F05FF994F945501AE0A06C38B117
:1016300000212046FFF7B4FD88B100F08FFB0EE0DB
:10164000606A08B9012000E0002038B904F12400E4
:1016500001F0A0FA18B100F081FB00E003E0681E81
:1016600045B2002DE2DC00BFFF2084F8450000F009
:101670007DF900F037F994F9445010E0206908B979
:10168000012000E0002048B904F1100001F082FAC6
:1016900008B100F063FB681E45B200E001E0002DD8
:1016A000ECDC00BFFF2084F8440000F05FF970BD5F
:1016B0002DE9F04104464FF0000800F091FC3E484F
:1016C000006808B9FFF7EEFB3C480068204000289E
:1016D0005FD1A4B1083404F0070080B104F0070022
:1016E000C0F10800044404F0070008B9012000E03C
:1016F000002020B9BF2232A13BA0FFF715F9002C32
:1017000047D03D480068844243D83C4E3046056887
:1017100001E02E462D686868A04202D228680028A1
:10172000F7D125480068854233D0306800F10808B9
:10173000286830606868001B102813D92F1907F03B
:10174000070008B9012000E0002020B9EC221CA10C
:1017500025A0FFF7E9F86868001B78606C603846E0
:10176000FFF7A2FC244968680968081A2249086042
:101770000846006822490968884203D21E4800686A
:101780001F4908600D4968680968084368600020BF
:10179000286001F05DFA08F0070008B9012000E0B8
:1017A000002028B94FF4967205A10FA0FFF7BCF8EE
:1017B0004046BDE8F08100007C0000208800002049
:1017C0002E2E5C2E2E5C4672656552544F535C7013
:1017D0006F72745C4D656D4D616E675C68656170BC
:1017E0005F342E63000000004572726F723A2573F9
:1017F0002C25640D0A0000008000002074000020E9
:10180000840000200648006830B10549096801F1EC
:101810004800896C491C016001480068704700005D
:1018200024000020001F4FF080730360001F21F090
:1018300001030360001F054B036014380260001FA2
:101840006FF0020303602038704700009115000814
:1018500001460A69D1E901309860D1E90103586075
:101860005068884201D18868506000200861106883
:10187000401E10601068704700F1080141604FF091
:10188000FF31816000F10801C16001610021016048
:10189000704700210161704710B502460B685C1C5F
:1018A0000CB9106907E002F1080000E040684468E4
:1018B00024689C42FAD944684C604C68A1608860F6
:1018C00041600A611468641C146010BD42684A607B
:1018D00093688B60936859609160086103685B1C32
:1018E0000360704710B500BF502080F31188BFF32C
:1018F0004F8FBFF36F8F00BF0B480068401C0A4931
:1019000008600846006801280DD108480068C0B288
:1019100008B9012000E0002028B940F2B91204A162
:101920000EA0FFF701F810BD8C00002004ED00E0D0
:101930002E2E5C2E2E5C4672656552544F535C70A1
:101940006F72745C525644535C41524D5F434D3448
:10195000465C706F72742E63000000004572726FF7
:10196000723A25732C25640D0A00000010B50B484F
:10197000006828B94FF4E07209A114A0FEF7D4FF63
:1019800006480068401E054908600846006820B9FE
:10199000002080F3118800BF00BF10BD8C00002024
:1019A0002E2E5C2E2E5C4672656552544F535C7031
:1019B0006F72745C525644535C41524D5F434D34D8
:1019C000465C706F72742E63000000004572726F87
:1019D000723A25732C25640D0A00000070B5064686
:1019E0003546002E35D0083D2C461A4960680968F6
:1019F000084008B1012000E0002028B94FF4A0728F
:101A000015A11FA0FEF790FF206808B9012000E093
:101A1000002028B940F241120FA119A0FEF784FF5F
:101A20000C4960680968084098B1206888B909497C
:101A3000606809688843606000F0D2FA1449606801
:101A400009680844124908602046FFF72DFB01F0A1
:101A5000FFF870BD880000202E2E5C2E2E5C467292
:101A6000656552544F535C706F72745C4D656D4D7B
:101A7000616E675C686561705F342E630000000012
:101A80004572726F723A25732C25640D0A000000AE
:101A900080000020064800684FF47A71B0FBF1F036
:101AA000401E4FF0E02148610720086170470000A8
:101AB0000000002070B5FEF7C9FB0546102D11D3BC
:101AC00005F1E02090F8F04310480078844201DBF3
:101AD000012000E0002028B94FF440720CA117A0AB
:101AE000FEF722FF1948006800F4E0601849096811
:101AF000884201D8012000E0002028B94FF4447248
:101B000003A10EA0FEF710FF70BD000090000020A2
:101B10002E2E5C2E2E5C4672656552544F535C70BF
:101B20006F72745C525644535C41524D5F434D3466
:101B3000465C706F72742E63000000004572726F15
:101B4000723A25732C25640D0A0000000CED00E0AC
:101B500094000020024600200BE0084B53F8303080
:101B600033B9064B43F8301003EBC0035A6002E070
:101B7000401C0A28F1D300BF70470000A4000020D9
:101B80002DE9F04105460E4617462C46FFF7AAFE02
:101B900094F94400401C10B9002084F8440094F9E2
:101BA0004500401C10B9002084F84500FFF7DEFE18
:101BB000A06B28B93A46314604F1240000F002F93E
:101BC0002046FFF72CFDBDE8F081000070B504460B
:101BD0000025ACB10F48006808B9012000E00020E2
:101BE00028B940F2CF420CA112A0FEF79DFE00F0F2
:101BF000F7F900212046FEF7DBFF01F029F8054642
:101C00003DB94FF080500F490860BFF34F8FBFF3CD
:101C10006F8F70BD5C0000202E2E5C2E2E5C4672F5
:101C2000656552544F535C7372635C7461736B737C
:101C30002E6300004572726F723A25732C25640D75
:101C40000A00000004ED00E070B50546FFF74AFE0B
:101C500015B92D48006800E028460446201DFFF70E
:101C6000F7FD78B9E06A00EB8000284951F82000C0
:101C700040B994F82C100120884025490968814317
:101C800023480160A06A18B104F11800FFF7E0FDD5
:101C900020480068401C1F4908601B4800688442B7
:101CA00009D1211D1C48FFF711FE1C480068401C8B
:101CB0001A49086009E01A480068401E184908607F
:101CC0002046FFF7D2F8FFF7D3FBFFF74FFE15488A
:101CD0000068C0B10C480068844214D11248006802
:101CE00008B9012000E0002028B940F265420FA1A8
:101CF00015A0FEF719FE4FF0805017490860BFF39A
:101D00004F8FBFF36F8F70BD24000020F4000020C0
:101D10003C00002050000020B003002030000020D4
:101D200034000020400000205C0000202E2E5C2E9D
:101D30002E5C4672656552544F535C7372635C74DB
:101D400061736B732E6300004572726F723A257374
:101D50002C25640D0A00000004ED00E0012001497B
:101D6000086070474800002070B504460D462CB945
:101D700040F6063207A10EA0FEF7D6FD1048016816
:101D800018312046FFF788FD01212846FEF710FF95
:101D900070BD00002E2E5C2E2E5C4672656552547E
:101DA0004F535C7372635C7461736B732E630000DA
:101DB0004572726F723A25732C25640D0A0000007B
:101DC0002400002070B505460E4614462DB940F695
:101DD000313209A10FA0FEF7A7FD124801681831A2
:101DE0002846FFF773FD0CB14FF0FF362146304611
:101DF000FEF7DEFE70BD00002E2E5C2E2E5C4672BD
:101E0000656552544F535C7372635C7461736B739A
:101E10002E6300004572726F723A25732C25640D93
:101E20000A0000002400002070B505462C46002D55
:101E30004BD02649E06A0968C96A884245D2A06940
:101E400000F0004028B921480068C06AC0F12000B5
:101E5000A061E16A01EB81011D4A02EB8101606929
:101E6000884201D1012000E0002050B3201DFFF77F
:101E7000EFFC78B9E06A00EB8000154951F82000CA
:101E800040B994F82C100120884012490968814318
:101E9000104801600D480068C06AE06294F82C1098
:101EA000012088400B49096808430A490860E16A33
:101EB00001EB8101064A02EB8100211DFFF706FDBF
:101EC00003E002480068C06AE06270BD24000020A0
:101ED000F40000203C00002010B504462CB940F668
:101EE000C13205A10BA0FEF71FFD0E48006820605F
:101EF0000D480068606010BD2E2E5C2E2E5C467270
:101F0000656552544F535C7372635C7461736B7399
:101F10002E6300004572726F723A25732C25640D92
:101F20000A0000004C000020380000201CB51A48B0
:101F300000210B468022CDE9001018A1194800F0BD
:101F4000BFFC0446012C02D100F016FF0446012C10
:101F500015D100BF502080F31188BFF34F8FBFF31E
:101F60006F8F00BF4FF0FF300F49086001200F490D
:101F7000086000200E49086000F092F80BE0601C39
:101F800008B1012000E0002028B940F2847209A1C4
:101F90000FA0FEF7C9FC1CBD5800002049444C4569
:101FA00000000000210F0008540000204000002025
:101FB000380000202E2E5C2E2E5C46726565525431
:101FC0004F535C7372635C7461736B732E630000B8
:101FD0004572726F723A25732C25640D0A00000059
:101FE00002480068401C0149086070475C000020FE
:101FF00010B51B48006818B101201A4908602DE08F
:1020000000201849086018480068B0FA80F0C0F154
:102010001F0404EB8400154951F8200008B1012089
:1020200000E0002028B940F6F62211A117A0FEF723
:102030007BFC04EB84010D4A02EB81004168496896
:10204000416000F1080142688A4202D14168496852
:1020500041604168C968114A116000BF10BD0000AD
:102060005C000020480000203C000020F40000201C
:102070002E2E5C2E2E5C4672656552544F535C7357
:1020800072635C7461736B732E6300004572726FD0
:10209000723A25732C25640D0A00000024000020EC
:1020A0001CB5404800684049884201D0012000E04A
:1020B000002028B940F259123CA147A0FEF734FC99
:1020C000384800683849491E884201D0012000E0A4
:1020D000002028B94FF4AD7234A13FA0FEF724FCD4
:1020E000414C204600780190FF20214608700846A8
:1020F000007800909DF8000000F0F0009DF80010BE
:10210000884201D1012000E0002028B940F273127A
:1021100026A131A0FEF708FC9DF8000000F0500059
:102120003249087007203249086009E030480068E9
:10213000401E2F4908609DF800004006000E0090E8
:102140009DF8000000F080008028EFD0284800684B
:102150000002274908600846008800F4E060086033
:102160002149019808700F482030006840F4700041
:102170000C49203108600846006840F07040086053
:10218000FFF788FC00201B490860FEF727F81A4873
:10219000006840F0404018490860FEF70FF8002042
:1021A0001CBD000000ED00E071C20F412E2E5C2E20
:1021B0002E5C4672656552544F535C706F72745C4E
:1021C000525644535C41524D5F434D34465C706FF0
:1021D00072742E63000000004572726F723A2573AC
:1021E0002C25640D0A00000000E400E090000020AF
:1021F000940000208C00002034EF00E010B500BFF8
:10220000502080F31188BFF34F8FBFF36F8F00BF53
:1022100000F09CFB18B14FF080500449086000BFEB
:10222000002080F3118800BF10BD000004ED00E025
:102230002DE9F84305460E4690460DB1012000E019
:10224000002028B94FF4C4720DA114A0FEF76CFB56
:102250000EB9002701E005FB06F707F14C00FFF778
:1022600027FA044644B104F14C0943464A46314634
:1022700028460094FEF768FE2046BDE8F88300007B
:102280002E2E5C2E2E5C4672656552544F535C7345
:1022900072635C71756575652E6300004572726FBF
:1022A000723A25732C25640D0A0000002DE9FF47C2
:1022B00082B005460E461F464FF0000A2C462CB948
:1022C00040F2DC4261A168A0FEF72EFB0EB9206C43
:1022D00008B9012000E0002028B940F2DD425BA1EE
:1022E00061A0FEF721FB00F01BFB08B9049808B9B8
:1022F000012000E0002028B94FF49C6253A15AA0AD
:10230000FEF712FB00BFFFF7EDFAD4F83890B9F1F1
:10231000000F3DD0D4F80C8031462046FEF752FD28
:10232000DFB9A9F10100A063206810B9FFF76AFACC
:102330006060206908B9012000E0002010BB04F1B2
:10234000100000F027FCE8B14FF080504A490860C7
:10235000BFF34F8FBFF36F8F14E0C4F80C80606A37
:1023600008B9012000E0002060B904F1240000F069
:1023700011FC38B14FF080503F490860BFF34F8FD8
:10238000BFF36F8FFFF7F2FA012006B0BDE8F087C8
:10239000049818B9FFF7EAFA0020F6E7BAF1000F3F
:1023A00004D16846FFF798FD4FF0010AFFF7DEFA07
:1023B000FFF716FEFFF796FA94F94400401C10B997
:1023C000002084F8440094F94500401C10B9002016
:1023D00084F84500FFF7CAFA04A9684600F01CFA21
:1023E00040BB2046FEF7C0FEF0B1206830B9FFF7D1
:1023F00079FA6068FFF718FDFFF7B8FA04F12400D6
:102400000499FFF7B1FC2046FFF709F900F020FC22
:1024100000287FF478AF4FF0805017490860BFF371
:102420004F8FBFF36F8F6EE72046FFF7F8F800F08D
:102430000FFC68E72046FFF7F2F800F009FC2046A1
:10244000FEF792FE0028EED000209EE72E2E5C2E96
:102450002E5C4672656552544F535C7372635C71B7
:10246000756575652E6300004572726F723A25734B
:102470002C25640D0A00000004ED00E070B505464F
:102480000E462C462CB940F21B121EA124A0FEF7CA
:102490004BFAFFF727FAD4E90F12206801FB02007C
:1024A00060600020A0632068A060E06B401E226C8A
:1024B000216800FB0210E060FF2084F8440084F8EB
:1024C00045009EB9206908B9012000E00020A8B9A4
:1024D00004F1100000F05EFB80B14FF08050144911
:1024E0000860BFF34F8FBFF36F8F07E004F1100058
:1024F000FFF7C2F904F12400FFF7BEF9FFF736FA3F
:10250000012070BD2E2E5C2E2E5C467265655254E5
:102510004F535C7372635C71756575652E63000063
:102520004572726F723A25732C25640D0A00000003
:1025300004ED00E02DE9FF4383B0064688461D46C2
:102540004FF0000934462CB940F2D92260A167A0AF
:10255000FEF7EAF9B8F1000F01D1206C08B90120AB
:1025600000E0002028B940F2DA2259A15FA0FEF76E
:10257000DBF9022D02D1E06B012801D1012000E03E
:10258000002028B940F2DB2251A158A0FEF7CCF977
:1025900000F0C6F908B9059808B9012000E000204C
:1025A00028B940F2DE224AA150A0FEF7BDF900BFD3
:1025B000FFF798F9A06BE16B884201D3022D38D167
:1025C0002A4641462046FEF712FC0746A06C68B139
:1025D00029462046FEF7E4FD28B34FF080504749D6
:1025E0000860BFF34F8FBFF36F8F1CE0606A08B9BC
:1025F000012000E0002068B904F1240000F0CAFACC
:1026000088B14FF080503D490860BFF34F8FBFF352
:102610006F8F08E03FB14FF0805038490860BFF33A
:102620004F8FBFF36F8FFFF7A1F9012007B0BDE80F
:10263000F083059818B9FFF799F90020F6E7B9F18A
:10264000000F04D101A8FFF747FC4FF00109FFF785
:102650008DF9FFF7C5FCFFF745F994F94400401CDC
:1026600010B9002084F8440094F94500401C10B9CA
:10267000002084F84500FFF779F905A901A800F0CA
:10268000CBF8F0B92046FEF77CFDA0B104F11000B4
:102690000599FFF769FB2046FEF7C1FF00F0D8FA65
:1026A000002885D14FF0805014490860BFF34F8F48
:1026B000BFF36F8F7CE72046FEF7B1FF00F0C8FA4A
:1026C00076E72046FEF7ABFF00F0C2FA0020ADE748
:1026D0002E2E5C2E2E5C4672656552544F535C73F1
:1026E00072635C71756575652E6300004572726F6B
:1026F000723A25732C25640D0A00000004ED00E0F9
:102700002DE9F05F80468A4615461E4644462CB9A0
:1027100040F29F3235A13CA0FEF706F9BAF1000F56
:1027200001D1206C08B9012000E0002028B94FF445
:1027300068722EA134A0FEF7F7F8022E02D1E06BEA
:10274000012801D1012000E0002028B940F2A13287
:1027500026A12DA0FEF7E8F8FFF7ACF900BF502145
:10276000EFF3118081F31188BFF34F8FBFF36F8FA9
:1027700000BF0746A06BE16B884201D3022E2BD12C
:1027800094F945B0324651462046FEF730FB0BF136
:102790000100C8B9A06C40B131462046FEF700FDEB
:1027A000B8B1B5B10120286013E0606A08B9012012
:1027B00000E0002068B904F1240000F0EBF940B11A
:1027C0003DB10120286004E00BF1010040B284F823
:1027D00045004FF0010901E04FF0000900BF87F309
:1027E000118800BF4846BDE8F09F00002E2E5C2EE9
:1027F0002E5C4672656552544F535C7372635C7114
:10280000756575652E6300004572726F723A2573A7
:102810002C25640D0A0000002DE9F04104460D4608
:102820002CB940F6CB3219A11FA0FEF77DF82DB9C7
:1028300040F6CC3215A11CA0FEF776F8FFF752F84F
:102840001D4807682868401C08B9002619E01B4984
:1028500020680968884204D06068B84201D801261F
:102860000FE06068381A2968884209D228686168D0
:10287000791A401A28602046FFF72EFB002600E058
:102880000126FFF773F83046BDE8F0812E2E5C2E4E
:102890002E5C4672656552544F535C7372635C7470
:1028A00061736B732E6300004572726F723A257309
:1028B0002C25640D0A000000380000204C00002088
:1028C0002DE9FF4F85B0804689461746DDE912ABFA
:1028D000B800FEF7EDFE064656B15420FEF7E8FEBE
:1028E00004460CB1266304E03046FFF777F800E0B9
:1028F00000247CB10020CDE900ABCDE902403A468E
:1029000049464046089BFEF735FB2046FEF79CF9FA
:10291000012501E04FF0FF35284609B0BDE8F08FF2
:102920000549096809B9012005E00449096809B9A0
:10293000022000E000207047400000205C000020E2
:102940000149086870470000380000202DE9F04177
:102950004FF0000841480068002872D140480068E4
:10296000451C3F480560EDB93E480068006808B95D
:10297000012000E0002028B940F6D9123AA141A078
:10298000FDF7D2FF374807684248006835490860BC
:102990004048076040480068401C3F490860FEF717
:1029A00067FD00BF3D48006885423CD300BF2D480D
:1029B0000068006808B9012000E0002020B14FF055
:1029C000FF30364908602DE026480068C068C468BA
:1029D0006668B54202D23148066023E0201DFEF74A
:1029E00037FFA06A18B104F11800FEF731FF94F820
:1029F0002C10012088402A490968084328490860AA
:102A0000E16A01EB8101274A02EB8100211DFEF7FB
:102A10005DFF2549E06A0968C96A8842C7D34FF05B
:102A20000108C4E700BF20480068C06A00EB8000CE
:102A30001C4951F82000012801D94FF0010805E098
:102A4000FFE71A480068401C1849086018480068E9
:102A500008B14FF001084046BDE8F0815C0000205D
:102A600038000020280000202E2E5C2E2E5C46729E
:102A7000656552544F535C7372635C7461736B731E
:102A80002E6300004572726F723A25732C25640D17
:102A90000A0000002C0000204C0000205400002000
:102AA0003C000020F400002024000020440000200E
:102AB0004800002070B505462C460026002D4BD05E
:102AC00026480068844201D1012000E0002028B996
:102AD00040F6C76222A129A0FDF726FFA06C28B905
:102AE00040F6C9621EA125A0FDF71EFFA06C401E86
:102AF000A064616CE06A88422ED0A06C60BB201D8F
:102B0000FEF7A6FE78B9E06A00EB80001F4951F895
:102B1000200040B994F82C10012088401C49096815
:102B200081431B480160606CE062E06AC0F12000F4
:102B3000A06194F82C1001208840154909680843C9
:102B400013490860E16A01EB8101104A02EB810040
:102B5000211DFEF7BBFE0126304670BD240000207B
:102B60002E2E5C2E2E5C4672656552544F535C735C
:102B700072635C7461736B732E6300004572726FD5
:102B8000723A25732C25640D0A000000F400002021
:102B90003C00002070B50646F068C4682CB940F6C9
:102BA00061321AA120A0FDF7BFFE04F11800FEF764
:102BB0004FFE21480068A8B9201DFEF749FE94F891
:102BC0002C10012088401D49096808431B490860F2
:102BD000E16A01EB81011A4A02EB8100211DFEF737
:102BE00075FE04E004F118011648FEF76FFE164961
:102BF000E06A0968C96A884204D90125012013499D
:102C0000086000E00025284670BD00002E2E5C2ED6
:102C10002E5C4672656552544F535C7372635C74EC
:102C200061736B732E6300004572726F723A257385
:102C30002C25640D0A0000005C0000203C000020F0
:102C4000F40000209C030020240000204800002005
:102C500070B5002400263448006828B94FF4FD629E
:102C600032A139A0FDF760FEFEF73CFE2E48006859
:102C7000401E2D4908600846006800284FD136489C
:102C8000006800284BD024E03448C068C46804F1D0
:102C90001800FEF7DDFD201DFEF7DAFD94F82C107C
:102CA000012088402E49096808432D490860E16ADF
:102CB00001EB81012B4A02EB8100211DFEF706FE8C
:102CC0002949E06A0968C96A884202D30120274974
:102CD00008602248006808B9012000E000200028B0
:102CE000D2D00CB1FEF7C4FB2148056865B100BF26
:102CF000FFF72CFE10B101201C4908606D1E002D4D
:102D0000F6D100201A4908601848006838B1012639
:102D1000300718490860BFF34F8FBFF36F8FFEF77E
:102D200025FE304670BD00005C0000202E2E5C2E7B
:102D30002E5C4672656552544F535C7372635C74CB
:102D400061736B732E6300004572726F723A257364
:102D50002C25640D0A000000340000209C03002094
:102D60003C000020F4000020240000204800002047
:102D70004400002004ED00E01CB50024FDF7BEFF78
:102D80000B48006858B10B481F2100234FF4807294
:102D9000CDE9001008A10A48FFF792FD04462CB9BE
:102DA00040F2331207A10EA0FDF7BEFD20461CBD68
:102DB000680000206C000020546D72205376630080
:102DC000051600082E2E5C2E2E5C46726565525448
:102DD0004F535C7372635C74696D6572732E63002C
:102DE0004572726F723A25732C25640D0A0000003B
:102DF0002DE9FF4704460D4616461F46DDF8308094
:102E00004FF000092CB94FF4D37217A11DA0FDF7A4
:102E10008BFD2048006810B3009501960294062DA2
:102E200015DAFFF77DFD022808D1002342466946E6
:102E300018480068FFF77EFB814610E000231A4621
:102E4000694614480068FFF775FB814607E00023D8
:102E50003A4669460F480068FFF752FC81464846EB
:102E600004B0BDE8F08700002E2E5C2E2E5C46726A
:102E7000656552544F535C7372635C74696D65721F
:102E8000732E63004572726F723A25732C25640DA0
:102E90000A00000068000020B82E00080000002092
:102EA000A4000000480900085C2F0008A4000020CE
:102EB0005C97000058090008007A030A000000002F
:102EC00000000000010203040607080900000000DA
:102ED00001020304010203040607080900000000C0
:102EE00000000000000000000000000000000000E2
:102EF00000000000000000000000000000000000D2
:102F000000000000000000000000000000000000C1
:102F100000000000000000000000000000000000B1
:102F200000000000000000000000000000000000A1
:102F30000000000000000000000000000000000091
:102F400000000000AAAAAAAA0000000000000000D9
:0C2F500000000000000000000000000075
:040000050800018965
:00000001FF
